{
  "_format": "hh-sol-artifact-1",
  "contractName": "Main",
  "sourceName": "contracts/Main.sol",
  "abi": [
    {
      "inputs": [
        {
          "internalType": "address",
          "name": "_nftAddress",
          "type": "address"
        },
        {
          "internalType": "address payable",
          "name": "_seller",
          "type": "address"
        },
        {
          "internalType": "address",
          "name": "_inspector",
          "type": "address"
        }
      ],
      "stateMutability": "nonpayable",
      "type": "constructor"
    },
    {
      "inputs": [
        {
          "internalType": "uint256",
          "name": "",
          "type": "uint256"
        },
        {
          "internalType": "address",
          "name": "",
          "type": "address"
        }
      ],
      "name": "approval",
      "outputs": [
        {
          "internalType": "bool",
          "name": "",
          "type": "bool"
        }
      ],
      "stateMutability": "view",
      "type": "function"
    },
    {
      "inputs": [
        {
          "internalType": "uint256",
          "name": "_nftID",
          "type": "uint256"
        }
      ],
      "name": "approveSale",
      "outputs": [],
      "stateMutability": "nonpayable",
      "type": "function"
    },
    {
      "inputs": [
        {
          "internalType": "uint256",
          "name": "",
          "type": "uint256"
        }
      ],
      "name": "buyer",
      "outputs": [
        {
          "internalType": "address",
          "name": "",
          "type": "address"
        }
      ],
      "stateMutability": "view",
      "type": "function"
    },
    {
      "inputs": [
        {
          "internalType": "uint256",
          "name": "_nftID",
          "type": "uint256"
        }
      ],
      "name": "cancelSale",
      "outputs": [],
      "stateMutability": "nonpayable",
      "type": "function"
    },
    {
      "inputs": [
        {
          "internalType": "uint256",
          "name": "",
          "type": "uint256"
        }
      ],
      "name": "depositAmount",
      "outputs": [
        {
          "internalType": "uint256",
          "name": "",
          "type": "uint256"
        }
      ],
      "stateMutability": "view",
      "type": "function"
    },
    {
      "inputs": [
        {
          "internalType": "uint256",
          "name": "_nftID",
          "type": "uint256"
        }
      ],
      "name": "depositEarnest",
      "outputs": [],
      "stateMutability": "payable",
      "type": "function"
    },
    {
      "inputs": [
        {
          "internalType": "uint256",
          "name": "_nftID",
          "type": "uint256"
        }
      ],
      "name": "finalizeSale",
      "outputs": [],
      "stateMutability": "nonpayable",
      "type": "function"
    },
    {
      "inputs": [],
      "name": "getBalance",
      "outputs": [
        {
          "internalType": "uint256",
          "name": "",
          "type": "uint256"
        }
      ],
      "stateMutability": "view",
      "type": "function"
    },
    {
      "inputs": [
        {
          "internalType": "uint256",
          "name": "",
          "type": "uint256"
        }
      ],
      "name": "inspectionPassed",
      "outputs": [
        {
          "internalType": "bool",
          "name": "",
          "type": "bool"
        }
      ],
      "stateMutability": "view",
      "type": "function"
    },
    {
      "inputs": [],
      "name": "inspector",
      "outputs": [
        {
          "internalType": "address",
          "name": "",
          "type": "address"
        }
      ],
      "stateMutability": "view",
      "type": "function"
    },
    {
      "inputs": [
        {
          "internalType": "uint256",
          "name": "",
          "type": "uint256"
        }
      ],
      "name": "isListed",
      "outputs": [
        {
          "internalType": "bool",
          "name": "",
          "type": "bool"
        }
      ],
      "stateMutability": "view",
      "type": "function"
    },
    {
      "inputs": [
        {
          "internalType": "uint256",
          "name": "_nftID",
          "type": "uint256"
        },
        {
          "internalType": "address",
          "name": "_buyer",
          "type": "address"
        },
        {
          "internalType": "uint256",
          "name": "_purchasePrice",
          "type": "uint256"
        },
        {
          "internalType": "uint256",
          "name": "_depositAmount",
          "type": "uint256"
        }
      ],
      "name": "list",
      "outputs": [],
      "stateMutability": "payable",
      "type": "function"
    },
    {
      "inputs": [],
      "name": "nftAddress",
      "outputs": [
        {
          "internalType": "address",
          "name": "",
          "type": "address"
        }
      ],
      "stateMutability": "view",
      "type": "function"
    },
    {
      "inputs": [
        {
          "internalType": "uint256",
          "name": "",
          "type": "uint256"
        }
      ],
      "name": "purchasePrice",
      "outputs": [
        {
          "internalType": "uint256",
          "name": "",
          "type": "uint256"
        }
      ],
      "stateMutability": "view",
      "type": "function"
    },
    {
      "inputs": [],
      "name": "seller",
      "outputs": [
        {
          "internalType": "address payable",
          "name": "",
          "type": "address"
        }
      ],
      "stateMutability": "view",
      "type": "function"
    },
    {
      "inputs": [
        {
          "internalType": "uint256",
          "name": "_nftID",
          "type": "uint256"
        },
        {
          "internalType": "bool",
          "name": "_passed",
          "type": "bool"
        }
      ],
      "name": "updateInspectionStatus",
      "outputs": [],
      "stateMutability": "nonpayable",
      "type": "function"
    },
    {
      "stateMutability": "payable",
      "type": "receive"
    }
  ],
  "bytecode": "0x60806040523480156200001157600080fd5b50604051620013fc380380620013fc8339818101604052810190620000379190620001b1565b826000806101000a81548173ffffffffffffffffffffffffffffffffffffffff021916908373ffffffffffffffffffffffffffffffffffffffff16021790555081600160006101000a81548173ffffffffffffffffffffffffffffffffffffffff021916908373ffffffffffffffffffffffffffffffffffffffff16021790555080600260006101000a81548173ffffffffffffffffffffffffffffffffffffffff021916908373ffffffffffffffffffffffffffffffffffffffff1602179055505050506200020d565b600080fd5b600073ffffffffffffffffffffffffffffffffffffffff82169050919050565b6000620001348262000107565b9050919050565b620001468162000127565b81146200015257600080fd5b50565b60008151905062000166816200013b565b92915050565b6000620001798262000107565b9050919050565b6200018b816200016c565b81146200019757600080fd5b50565b600081519050620001ab8162000180565b92915050565b600080600060608486031215620001cd57620001cc62000102565b5b6000620001dd8682870162000155565b9350506020620001f0868287016200019a565b9250506040620002038682870162000155565b9150509250925092565b6111df806200021d6000396000f3fe6080604052600436106100f75760003560e01c80639d0e5fd61161008a578063c9f0ec7e11610059578063c9f0ec7e14610359578063e740f77014610375578063ed2cee9e14610391578063fcce4883146103bc576100fe565b80639d0e5fd6146102a1578063aa929380146102ca578063b848de35146102f3578063bd94b00514610330576100fe565b80635bf8633a116100c65780635bf8633a146101bf5780635eed5fff146101ea57806377fbc4ae1461022757806387f8ab2614610264576100fe565b806308551a531461010357806312065fe01461012e57806314a72feb146101595780634dd4acaf14610182576100fe565b366100fe57005b600080fd5b34801561010f57600080fd5b506101186103f9565b6040516101259190610d2d565b60405180910390f35b34801561013a57600080fd5b5061014361041f565b6040516101509190610d61565b60405180910390f35b34801561016557600080fd5b50610180600480360381019061017b9190610dad565b610427565b005b34801561018e57600080fd5b506101a960048036038101906101a49190610dad565b610493565b6040516101b69190610dfb565b60405180910390f35b3480156101cb57600080fd5b506101d46104c6565b6040516101e19190610dfb565b60405180910390f35b3480156101f657600080fd5b50610211600480360381019061020c9190610dad565b6104ea565b60405161021e9190610e31565b60405180910390f35b34801561023357600080fd5b5061024e60048036038101906102499190610dad565b61050a565b60405161025b9190610d61565b60405180910390f35b34801561027057600080fd5b5061028b60048036038101906102869190610dad565b610522565b6040516102989190610d61565b60405180910390f35b3480156102ad57600080fd5b506102c860048036038101906102c39190610e78565b61053a565b005b3480156102d657600080fd5b506102f160048036038101906102ec9190610dad565b6105f9565b005b3480156102ff57600080fd5b5061031a60048036038101906103159190610ee4565b6108c6565b6040516103279190610e31565b60405180910390f35b34801561033c57600080fd5b5061035760048036038101906103529190610dad565b6108f5565b005b610373600480360381019061036e9190610f24565b610a0d565b005b61038f600480360381019061038a9190610dad565b610be0565b005b34801561039d57600080fd5b506103a6610ca6565b6040516103b39190610dfb565b60405180910390f35b3480156103c857600080fd5b506103e360048036038101906103de9190610dad565b610ccc565b6040516103f09190610e31565b60405180910390f35b600160009054906101000a900473ffffffffffffffffffffffffffffffffffffffff1681565b600047905090565b60016008600083815260200190815260200160002060003373ffffffffffffffffffffffffffffffffffffffff1673ffffffffffffffffffffffffffffffffffffffff16815260200190815260200160002060006101000a81548160ff02191690831515021790555050565b60066020528060005260406000206000915054906101000a900473ffffffffffffffffffffffffffffffffffffffff1681565b60008054906101000a900473ffffffffffffffffffffffffffffffffffffffff1681565b60076020528060005260406000206000915054906101000a900460ff1681565b60046020528060005260406000206000915090505481565b60056020528060005260406000206000915090505481565b600260009054906101000a900473ffffffffffffffffffffffffffffffffffffffff1673ffffffffffffffffffffffffffffffffffffffff163373ffffffffffffffffffffffffffffffffffffffff16146105ca576040517f08c379a00000000000000000000000000000000000000000000000000000000081526004016105c19061100e565b60405180910390fd5b806007600084815260200190815260200160002060006101000a81548160ff0219169083151502179055505050565b6008600082815260200190815260200160002060006006600084815260200190815260200160002060009054906101000a900473ffffffffffffffffffffffffffffffffffffffff1673ffffffffffffffffffffffffffffffffffffffff1673ffffffffffffffffffffffffffffffffffffffff16815260200190815260200160002060009054906101000a900460ff1661069357600080fd5b600860008281526020019081526020016000206000600160009054906101000a900473ffffffffffffffffffffffffffffffffffffffff1673ffffffffffffffffffffffffffffffffffffffff1673ffffffffffffffffffffffffffffffffffffffff16815260200190815260200160002060009054906101000a900460ff1661071c57600080fd5b600460008281526020019081526020016000205447101561073c57600080fd5b6000600160009054906101000a900473ffffffffffffffffffffffffffffffffffffffff1673ffffffffffffffffffffffffffffffffffffffff16476040516107849061105f565b60006040518083038185875af1925050503d80600081146107c1576040519150601f19603f3d011682016040523d82523d6000602084013e6107c6565b606091505b50509050806107d457600080fd5b60008054906101000a900473ffffffffffffffffffffffffffffffffffffffff1673ffffffffffffffffffffffffffffffffffffffff166323b872dd306006600086815260200190815260200160002060009054906101000a900473ffffffffffffffffffffffffffffffffffffffff16856040518463ffffffff1660e01b815260040161086493929190611074565b600060405180830381600087803b15801561087e57600080fd5b505af1158015610892573d6000803e3d6000fd5b5050505060006003600084815260200190815260200160002060006101000a81548160ff0219169083151502179055505050565b60086020528160005260406000206020528060005260406000206000915091509054906101000a900460ff1681565b600015156007600083815260200190815260200160002060009054906101000a900460ff161515036109a0576006600082815260200190815260200160002060009054906101000a900473ffffffffffffffffffffffffffffffffffffffff1673ffffffffffffffffffffffffffffffffffffffff166108fc479081150290604051600060405180830381858888f1935050505015801561099a573d6000803e3d6000fd5b50610a0a565b600160009054906101000a900473ffffffffffffffffffffffffffffffffffffffff1673ffffffffffffffffffffffffffffffffffffffff166108fc479081150290604051600060405180830381858888f19350505050158015610a08573d6000803e3d6000fd5b505b50565b600160009054906101000a900473ffffffffffffffffffffffffffffffffffffffff1673ffffffffffffffffffffffffffffffffffffffff163373ffffffffffffffffffffffffffffffffffffffff1614610a9d576040517f08c379a0000000000000000000000000000000000000000000000000000000008152600401610a949061111d565b60405180910390fd5b60008054906101000a900473ffffffffffffffffffffffffffffffffffffffff1673ffffffffffffffffffffffffffffffffffffffff166323b872dd3330876040518463ffffffff1660e01b8152600401610afa93929190611074565b600060405180830381600087803b158015610b1457600080fd5b505af1158015610b28573d6000803e3d6000fd5b5050505060016003600086815260200190815260200160002060006101000a81548160ff021916908315150217905550816004600086815260200190815260200160002081905550806005600086815260200190815260200160002081905550826006600086815260200190815260200160002060006101000a81548173ffffffffffffffffffffffffffffffffffffffff021916908373ffffffffffffffffffffffffffffffffffffffff16021790555050505050565b806006600082815260200190815260200160002060009054906101000a900473ffffffffffffffffffffffffffffffffffffffff1673ffffffffffffffffffffffffffffffffffffffff163373ffffffffffffffffffffffffffffffffffffffff1614610c82576040517f08c379a0000000000000000000000000000000000000000000000000000000008152600401610c7990611189565b60405180910390fd5b6005600083815260200190815260200160002054341015610ca257600080fd5b5050565b600260009054906101000a900473ffffffffffffffffffffffffffffffffffffffff1681565b60036020528060005260406000206000915054906101000a900460ff1681565b600073ffffffffffffffffffffffffffffffffffffffff82169050919050565b6000610d1782610cec565b9050919050565b610d2781610d0c565b82525050565b6000602082019050610d426000830184610d1e565b92915050565b6000819050919050565b610d5b81610d48565b82525050565b6000602082019050610d766000830184610d52565b92915050565b600080fd5b610d8a81610d48565b8114610d9557600080fd5b50565b600081359050610da781610d81565b92915050565b600060208284031215610dc357610dc2610d7c565b5b6000610dd184828501610d98565b91505092915050565b6000610de582610cec565b9050919050565b610df581610dda565b82525050565b6000602082019050610e106000830184610dec565b92915050565b60008115159050919050565b610e2b81610e16565b82525050565b6000602082019050610e466000830184610e22565b92915050565b610e5581610e16565b8114610e6057600080fd5b50565b600081359050610e7281610e4c565b92915050565b60008060408385031215610e8f57610e8e610d7c565b5b6000610e9d85828601610d98565b9250506020610eae85828601610e63565b9150509250929050565b610ec181610dda565b8114610ecc57600080fd5b50565b600081359050610ede81610eb8565b92915050565b60008060408385031215610efb57610efa610d7c565b5b6000610f0985828601610d98565b9250506020610f1a85828601610ecf565b9150509250929050565b60008060008060808587031215610f3e57610f3d610d7c565b5b6000610f4c87828801610d98565b9450506020610f5d87828801610ecf565b9350506040610f6e87828801610d98565b9250506060610f7f87828801610d98565b91505092959194509250565b600082825260208201905092915050565b7f4f6e6c7920696e73706563746f722063616e2063616c6c2074686973206d657460008201527f686f642100000000000000000000000000000000000000000000000000000000602082015250565b6000610ff8602483610f8b565b915061100382610f9c565b604082019050919050565b6000602082019050818103600083015261102781610feb565b9050919050565b600081905092915050565b50565b600061104960008361102e565b915061105482611039565b600082019050919050565b600061106a8261103c565b9150819050919050565b60006060820190506110896000830186610dec565b6110966020830185610dec565b6110a36040830184610d52565b949350505050565b7f4f6e6c792073656c6c65722063616e2063616c6c2074686973206d6574686f6460008201527f2100000000000000000000000000000000000000000000000000000000000000602082015250565b6000611107602183610f8b565b9150611112826110ab565b604082019050919050565b60006020820190508181036000830152611136816110fa565b9050919050565b7f4f6e6c792062757965722063616e2063616c6c2074686973206d6574686f6400600082015250565b6000611173601f83610f8b565b915061117e8261113d565b602082019050919050565b600060208201905081810360008301526111a281611166565b905091905056fea264697066735822122018df90de97d30bdbc7dee6dc9bccdccc76c504d7a728cf1555a78ded8b030cde64736f6c63430008110033",
  "linkReferences": {},
  "deployedLinkReferences": {}
}